{
  "contractName": "TeamToken",
  "abi": [
    {
      "inputs": [
        {
          "internalType": "string",
          "name": "name_",
          "type": "string"
        },
        {
          "internalType": "string",
          "name": "symbol_",
          "type": "string"
        },
        {
          "internalType": "uint256",
          "name": "_initialSupply",
          "type": "uint256"
        }
      ],
      "stateMutability": "nonpayable",
      "type": "constructor"
    },
    {
      "anonymous": false,
      "inputs": [
        {
          "indexed": true,
          "internalType": "address",
          "name": "owner",
          "type": "address"
        },
        {
          "indexed": true,
          "internalType": "address",
          "name": "spender",
          "type": "address"
        },
        {
          "indexed": false,
          "internalType": "uint256",
          "name": "value",
          "type": "uint256"
        }
      ],
      "name": "Approval",
      "type": "event"
    },
    {
      "anonymous": false,
      "inputs": [
        {
          "indexed": true,
          "internalType": "address",
          "name": "from",
          "type": "address"
        },
        {
          "indexed": true,
          "internalType": "address",
          "name": "to",
          "type": "address"
        },
        {
          "indexed": false,
          "internalType": "uint256",
          "name": "value",
          "type": "uint256"
        }
      ],
      "name": "Transfer",
      "type": "event"
    },
    {
      "inputs": [],
      "name": "name",
      "outputs": [
        {
          "internalType": "string",
          "name": "",
          "type": "string"
        }
      ],
      "stateMutability": "view",
      "type": "function"
    },
    {
      "inputs": [],
      "name": "symbol",
      "outputs": [
        {
          "internalType": "string",
          "name": "",
          "type": "string"
        }
      ],
      "stateMutability": "view",
      "type": "function"
    },
    {
      "inputs": [],
      "name": "decimals",
      "outputs": [
        {
          "internalType": "uint8",
          "name": "",
          "type": "uint8"
        }
      ],
      "stateMutability": "view",
      "type": "function"
    },
    {
      "inputs": [],
      "name": "totalSupply",
      "outputs": [
        {
          "internalType": "uint256",
          "name": "",
          "type": "uint256"
        }
      ],
      "stateMutability": "view",
      "type": "function"
    },
    {
      "inputs": [
        {
          "internalType": "address",
          "name": "account",
          "type": "address"
        }
      ],
      "name": "balanceOf",
      "outputs": [
        {
          "internalType": "uint256",
          "name": "",
          "type": "uint256"
        }
      ],
      "stateMutability": "view",
      "type": "function"
    },
    {
      "inputs": [
        {
          "internalType": "address",
          "name": "from",
          "type": "address"
        },
        {
          "internalType": "address",
          "name": "to",
          "type": "address"
        },
        {
          "internalType": "uint256",
          "name": "amount",
          "type": "uint256"
        }
      ],
      "name": "transferFrom",
      "outputs": [
        {
          "internalType": "bool",
          "name": "",
          "type": "bool"
        }
      ],
      "stateMutability": "nonpayable",
      "type": "function"
    },
    {
      "inputs": [
        {
          "internalType": "address",
          "name": "spender",
          "type": "address"
        },
        {
          "internalType": "uint256",
          "name": "amount",
          "type": "uint256"
        }
      ],
      "name": "approve",
      "outputs": [
        {
          "internalType": "bool",
          "name": "",
          "type": "bool"
        }
      ],
      "stateMutability": "nonpayable",
      "type": "function"
    },
    {
      "inputs": [
        {
          "internalType": "address",
          "name": "to",
          "type": "address"
        },
        {
          "internalType": "uint256",
          "name": "amount",
          "type": "uint256"
        }
      ],
      "name": "transfer",
      "outputs": [
        {
          "internalType": "bool",
          "name": "",
          "type": "bool"
        }
      ],
      "stateMutability": "nonpayable",
      "type": "function"
    },
    {
      "inputs": [
        {
          "internalType": "address",
          "name": "_from",
          "type": "address"
        },
        {
          "internalType": "uint256",
          "name": "amount",
          "type": "uint256"
        }
      ],
      "name": "transferTo",
      "outputs": [
        {
          "internalType": "bool",
          "name": "success",
          "type": "bool"
        }
      ],
      "stateMutability": "nonpayable",
      "type": "function"
    },
    {
      "inputs": [
        {
          "internalType": "address",
          "name": "owner",
          "type": "address"
        },
        {
          "internalType": "address",
          "name": "spender",
          "type": "address"
        }
      ],
      "name": "allowance",
      "outputs": [
        {
          "internalType": "uint256",
          "name": "",
          "type": "uint256"
        }
      ],
      "stateMutability": "view",
      "type": "function"
    }
  ],
  "bytecode": "0x608060405234801562000010575f80fd5b5060405162001998380380620019988339818101604052810190620000369190620003d3565b826003908162000047919062000698565b50816004908162000059919062000698565b5062000096336200006f6200009f60201b60201c565b600a6200007d919062000905565b836200008a919062000955565b620000a760201b60201c565b50505062000a83565b5f6012905090565b5f73ffffffffffffffffffffffffffffffffffffffff168273ffffffffffffffffffffffffffffffffffffffff160362000118576040517f08c379a00000000000000000000000000000000000000000000000000000000081526004016200010f90620009fd565b60405180910390fd5b6200012b5f83836200020c60201b60201c565b8060025f8282546200013e919062000a1d565b92505081905550805f808473ffffffffffffffffffffffffffffffffffffffff1673ffffffffffffffffffffffffffffffffffffffff1681526020019081526020015f205f82825401925050819055508173ffffffffffffffffffffffffffffffffffffffff165f73ffffffffffffffffffffffffffffffffffffffff167fddf252ad1be2c89b69c2b068fc378daa952ba7f163c4a11628f55a4df523b3ef83604051620001ed919062000a68565b60405180910390a3620002085f83836200021160201b60201c565b5050565b505050565b505050565b5f604051905090565b5f80fd5b5f80fd5b5f80fd5b5f80fd5b5f601f19601f8301169050919050565b7f4e487b71000000000000000000000000000000000000000000000000000000005f52604160045260245ffd5b62000277826200022f565b810181811067ffffffffffffffff821117156200029957620002986200023f565b5b80604052505050565b5f620002ad62000216565b9050620002bb82826200026c565b919050565b5f67ffffffffffffffff821115620002dd57620002dc6200023f565b5b620002e8826200022f565b9050602081019050919050565b5f5b8381101562000314578082015181840152602081019050620002f7565b5f8484015250505050565b5f620003356200032f84620002c0565b620002a2565b9050828152602081018484840111156200035457620003536200022b565b5b62000361848285620002f5565b509392505050565b5f82601f83011262000380576200037f62000227565b5b8151620003928482602086016200031f565b91505092915050565b5f819050919050565b620003af816200039b565b8114620003ba575f80fd5b50565b5f81519050620003cd81620003a4565b92915050565b5f805f60608486031215620003ed57620003ec6200021f565b5b5f84015167ffffffffffffffff8111156200040d576200040c62000223565b5b6200041b8682870162000369565b935050602084015167ffffffffffffffff8111156200043f576200043e62000223565b5b6200044d8682870162000369565b92505060406200046086828701620003bd565b9150509250925092565b5f81519050919050565b7f4e487b71000000000000000000000000000000000000000000000000000000005f52602260045260245ffd5b5f6002820490506001821680620004b957607f821691505b602082108103620004cf57620004ce62000474565b5b50919050565b5f819050815f5260205f209050919050565b5f6020601f8301049050919050565b5f82821b905092915050565b5f60088302620005337fffffffffffffffffffffffffffffffffffffffffffffffffffffffffffffffff82620004f6565b6200053f8683620004f6565b95508019841693508086168417925050509392505050565b5f819050919050565b5f620005806200057a62000574846200039b565b62000557565b6200039b565b9050919050565b5f819050919050565b6200059b8362000560565b620005b3620005aa8262000587565b84845462000502565b825550505050565b5f90565b620005c9620005bb565b620005d681848462000590565b505050565b5b81811015620005fd57620005f15f82620005bf565b600181019050620005dc565b5050565b601f8211156200064c576200061681620004d5565b6200062184620004e7565b8101602085101562000631578190505b620006496200064085620004e7565b830182620005db565b50505b505050565b5f82821c905092915050565b5f6200066e5f198460080262000651565b1980831691505092915050565b5f6200068883836200065d565b9150826002028217905092915050565b620006a3826200046a565b67ffffffffffffffff811115620006bf57620006be6200023f565b5b620006cb8254620004a1565b620006d882828562000601565b5f60209050601f8311600181146200070e575f8415620006f9578287015190505b6200070585826200067b565b86555062000774565b601f1984166200071e86620004d5565b5f5b82811015620007475784890151825560018201915060208501945060208101905062000720565b8683101562000767578489015162000763601f8916826200065d565b8355505b6001600288020188555050505b505050505050565b7f4e487b71000000000000000000000000000000000000000000000000000000005f52601160045260245ffd5b5f8160011c9050919050565b5f808291508390505b60018511156200080657808604811115620007de57620007dd6200077c565b5b6001851615620007ee5780820291505b8081029050620007fe85620007a9565b9450620007be565b94509492505050565b5f82620008205760019050620008f2565b816200082f575f9050620008f2565b8160018114620008485760028114620008535762000889565b6001915050620008f2565b60ff8411156200086857620008676200077c565b5b8360020a9150848211156200088257620008816200077c565b5b50620008f2565b5060208310610133831016604e8410600b8410161715620008c35782820a905083811115620008bd57620008bc6200077c565b5b620008f2565b620008d28484846001620007b5565b92509050818404811115620008ec57620008eb6200077c565b5b81810290505b9392505050565b5f60ff82169050919050565b5f62000911826200039b565b91506200091e83620008f9565b92506200094d7fffffffffffffffffffffffffffffffffffffffffffffffffffffffffffffffff84846200080f565b905092915050565b5f62000961826200039b565b91506200096e836200039b565b92508282026200097e816200039b565b915082820484148315176200099857620009976200077c565b5b5092915050565b5f82825260208201905092915050565b7f45524332303a206d696e7420746f20746865207a65726f2061646472657373005f82015250565b5f620009e5601f836200099f565b9150620009f282620009af565b602082019050919050565b5f6020820190508181035f83015262000a1681620009d7565b9050919050565b5f62000a29826200039b565b915062000a36836200039b565b925082820190508082111562000a515762000a506200077c565b5b92915050565b62000a62816200039b565b82525050565b5f60208201905062000a7d5f83018462000a57565b92915050565b610f078062000a915f395ff3fe608060405234801561000f575f80fd5b506004361061009c575f3560e01c8063313ce56711610064578063313ce5671461016c57806370a082311461018a57806395d89b41146101ba578063a9059cbb146101d8578063dd62ed3e146102085761009c565b806306fdde03146100a0578063095ea7b3146100be57806318160ddd146100ee57806323b872dd1461010c5780632ccb1b301461013c575b5f80fd5b6100a8610238565b6040516100b59190610977565b60405180910390f35b6100d860048036038101906100d39190610a28565b6102c8565b6040516100e59190610a80565b60405180910390f35b6100f66102ea565b6040516101039190610aa8565b60405180910390f35b61012660048036038101906101219190610ac1565b6102f3565b6040516101339190610a80565b60405180910390f35b61015660048036038101906101519190610a28565b61030a565b6040516101639190610a80565b60405180910390f35b61017461032c565b6040516101819190610b2c565b60405180910390f35b6101a4600480360381019061019f9190610b45565b610334565b6040516101b19190610aa8565b60405180910390f35b6101c2610379565b6040516101cf9190610977565b60405180910390f35b6101f260048036038101906101ed9190610a28565b610409565b6040516101ff9190610a80565b60405180910390f35b610222600480360381019061021d9190610b70565b61042b565b60405161022f9190610aa8565b60405180910390f35b60606003805461024790610bdb565b80601f016020809104026020016040519081016040528092919081815260200182805461027390610bdb565b80156102be5780601f10610295576101008083540402835291602001916102be565b820191905f5260205f20905b8154815290600101906020018083116102a157829003601f168201915b5050505050905090565b5f806102d26104ad565b90506102df8185856104b4565b600191505092915050565b5f600254905090565b5f6102ff848484610677565b600190509392505050565b5f806103146104ad565b9050610321848285610677565b600191505092915050565b5f6012905090565b5f805f8373ffffffffffffffffffffffffffffffffffffffff1673ffffffffffffffffffffffffffffffffffffffff1681526020019081526020015f20549050919050565b60606004805461038890610bdb565b80601f01602080910402602001604051908101604052809291908181526020018280546103b490610bdb565b80156103ff5780601f106103d6576101008083540402835291602001916103ff565b820191905f5260205f20905b8154815290600101906020018083116103e257829003601f168201915b5050505050905090565b5f806104136104ad565b9050610420818585610677565b600191505092915050565b5f60015f8473ffffffffffffffffffffffffffffffffffffffff1673ffffffffffffffffffffffffffffffffffffffff1681526020019081526020015f205f8373ffffffffffffffffffffffffffffffffffffffff1673ffffffffffffffffffffffffffffffffffffffff1681526020019081526020015f2054905092915050565b5f33905090565b5f73ffffffffffffffffffffffffffffffffffffffff168373ffffffffffffffffffffffffffffffffffffffff1603610522576040517f08c379a000000000000000000000000000000000000000000000000000000000815260040161051990610c7b565b60405180910390fd5b5f73ffffffffffffffffffffffffffffffffffffffff168273ffffffffffffffffffffffffffffffffffffffff1603610590576040517f08c379a000000000000000000000000000000000000000000000000000000000815260040161058790610d09565b60405180910390fd5b8060015f8573ffffffffffffffffffffffffffffffffffffffff1673ffffffffffffffffffffffffffffffffffffffff1681526020019081526020015f205f8473ffffffffffffffffffffffffffffffffffffffff1673ffffffffffffffffffffffffffffffffffffffff1681526020019081526020015f20819055508173ffffffffffffffffffffffffffffffffffffffff168373ffffffffffffffffffffffffffffffffffffffff167f8c5be1e5ebec7d5bd14f71427d1e84f3dd0314c0f7b2291e5b200ac8c7c3b9258360405161066a9190610aa8565b60405180910390a3505050565b5f73ffffffffffffffffffffffffffffffffffffffff168373ffffffffffffffffffffffffffffffffffffffff16036106e5576040517f08c379a00000000000000000000000000000000000000000000000000000000081526004016106dc90610d97565b60405180910390fd5b5f73ffffffffffffffffffffffffffffffffffffffff168273ffffffffffffffffffffffffffffffffffffffff1603610753576040517f08c379a000000000000000000000000000000000000000000000000000000000815260040161074a90610e25565b60405180910390fd5b61075e8383836108e3565b5f805f8573ffffffffffffffffffffffffffffffffffffffff1673ffffffffffffffffffffffffffffffffffffffff1681526020019081526020015f20549050818110156107e1576040517f08c379a00000000000000000000000000000000000000000000000000000000081526004016107d890610eb3565b60405180910390fd5b8181035f808673ffffffffffffffffffffffffffffffffffffffff1673ffffffffffffffffffffffffffffffffffffffff1681526020019081526020015f2081905550815f808573ffffffffffffffffffffffffffffffffffffffff1673ffffffffffffffffffffffffffffffffffffffff1681526020019081526020015f205f82825401925050819055508273ffffffffffffffffffffffffffffffffffffffff168473ffffffffffffffffffffffffffffffffffffffff167fddf252ad1be2c89b69c2b068fc378daa952ba7f163c4a11628f55a4df523b3ef846040516108ca9190610aa8565b60405180910390a36108dd8484846108e8565b50505050565b505050565b505050565b5f81519050919050565b5f82825260208201905092915050565b5f5b83811015610924578082015181840152602081019050610909565b5f8484015250505050565b5f601f19601f8301169050919050565b5f610949826108ed565b61095381856108f7565b9350610963818560208601610907565b61096c8161092f565b840191505092915050565b5f6020820190508181035f83015261098f818461093f565b905092915050565b5f80fd5b5f73ffffffffffffffffffffffffffffffffffffffff82169050919050565b5f6109c48261099b565b9050919050565b6109d4816109ba565b81146109de575f80fd5b50565b5f813590506109ef816109cb565b92915050565b5f819050919050565b610a07816109f5565b8114610a11575f80fd5b50565b5f81359050610a22816109fe565b92915050565b5f8060408385031215610a3e57610a3d610997565b5b5f610a4b858286016109e1565b9250506020610a5c85828601610a14565b9150509250929050565b5f8115159050919050565b610a7a81610a66565b82525050565b5f602082019050610a935f830184610a71565b92915050565b610aa2816109f5565b82525050565b5f602082019050610abb5f830184610a99565b92915050565b5f805f60608486031215610ad857610ad7610997565b5b5f610ae5868287016109e1565b9350506020610af6868287016109e1565b9250506040610b0786828701610a14565b9150509250925092565b5f60ff82169050919050565b610b2681610b11565b82525050565b5f602082019050610b3f5f830184610b1d565b92915050565b5f60208284031215610b5a57610b59610997565b5b5f610b67848285016109e1565b91505092915050565b5f8060408385031215610b8657610b85610997565b5b5f610b93858286016109e1565b9250506020610ba4858286016109e1565b9150509250929050565b7f4e487b71000000000000000000000000000000000000000000000000000000005f52602260045260245ffd5b5f6002820490506001821680610bf257607f821691505b602082108103610c0557610c04610bae565b5b50919050565b7f45524332303a20617070726f76652066726f6d20746865207a65726f206164645f8201527f7265737300000000000000000000000000000000000000000000000000000000602082015250565b5f610c656024836108f7565b9150610c7082610c0b565b604082019050919050565b5f6020820190508181035f830152610c9281610c59565b9050919050565b7f45524332303a20617070726f766520746f20746865207a65726f2061646472655f8201527f7373000000000000000000000000000000000000000000000000000000000000602082015250565b5f610cf36022836108f7565b9150610cfe82610c99565b604082019050919050565b5f6020820190508181035f830152610d2081610ce7565b9050919050565b7f45524332303a207472616e736665722066726f6d20746865207a65726f2061645f8201527f6472657373000000000000000000000000000000000000000000000000000000602082015250565b5f610d816025836108f7565b9150610d8c82610d27565b604082019050919050565b5f6020820190508181035f830152610dae81610d75565b9050919050565b7f45524332303a207472616e7366657220746f20746865207a65726f20616464725f8201527f6573730000000000000000000000000000000000000000000000000000000000602082015250565b5f610e0f6023836108f7565b9150610e1a82610db5565b604082019050919050565b5f6020820190508181035f830152610e3c81610e03565b9050919050565b7f45524332303a207472616e7366657220616d6f756e74206578636565647320625f8201527f616c616e63650000000000000000000000000000000000000000000000000000602082015250565b5f610e9d6026836108f7565b9150610ea882610e43565b604082019050919050565b5f6020820190508181035f830152610eca81610e91565b905091905056fea26469706673582212202e2988b42837a22ec197735ce422cfe485523995f7181211fde499b87888362864736f6c63430008140033",
  "immutableReferences": {},
  "source": "// SPDX-License-Identifier: LGPL-3.0-only\r\npragma solidity ^0.8.9;\r\n\r\ncontract TeamToken {\r\n    mapping(address => uint256) private _balances;\r\n\r\n    mapping(address => mapping(address => uint256)) private _allowances;\r\n\r\n    uint256 private _totalSupply;\r\n\r\n    string private _name;\r\n    string private _symbol;\r\n\r\n    constructor(string memory name_, string memory symbol_, uint256 _initialSupply) {\r\n        _name = name_;\r\n        _symbol = symbol_;\r\n        _mint(msg.sender,_initialSupply * 10 ** decimals());\r\n    }\r\n\r\n    function name() public view virtual returns (string memory) {\r\n        return _name;\r\n    }\r\n\r\n    function symbol() public view virtual returns (string memory) {\r\n        return _symbol;\r\n    }\r\n\r\n    function decimals() public view virtual returns (uint8) {\r\n        return 18;\r\n    }\r\n\r\n    function totalSupply() public view virtual returns (uint256) {\r\n        return _totalSupply;\r\n    }\r\n\r\n    function balanceOf(address account) public view virtual returns (uint256) {\r\n        return _balances[account];\r\n    }\r\n\r\n    event Transfer(address indexed from, address indexed to, uint256 value);\r\n\r\n    event Approval(address indexed owner, address indexed spender, uint256 value);\r\n\r\n    function _msgSender() internal view virtual returns (address) {\r\n        return msg.sender;\r\n    }\r\n\r\n    function _msgData() internal view virtual returns (bytes calldata) {\r\n        return msg.data;\r\n    }\r\n\r\n    function _transfer(address from, address to, uint256 amount) internal virtual {\r\n        require(from != address(0), \"ERC20: transfer from the zero address\");\r\n        require(to != address(0), \"ERC20: transfer to the zero address\");\r\n\r\n        _beforeTokenTransfer(from, to, amount);\r\n\r\n        uint256 fromBalance = _balances[from];\r\n        require(fromBalance >= amount, \"ERC20: transfer amount exceeds balance\");\r\n        unchecked {\r\n            _balances[from] = fromBalance - amount;\r\n            _balances[to] += amount;\r\n        }\r\n\r\n        emit Transfer(from, to, amount);\r\n\r\n        _afterTokenTransfer(from, to, amount);\r\n    }\r\n\r\n    function transferFrom(address from, address to, uint256 amount) public virtual returns (bool) {\r\n        // address spender = _msgSender();\r\n        // _spendAllowance(from, spender, amount);\r\n        _transfer(from, to, amount);\r\n        return true;\r\n    }\r\n\r\n    function _beforeTokenTransfer(address from, address to, uint256 amount) internal virtual {}\r\n\r\n    function _afterTokenTransfer(address from, address to, uint256 amount) internal virtual {}\r\n\r\n    function _spendAllowance(address owner, address spender, uint256 amount) internal virtual {\r\n        uint256 currentAllowance = allowance(owner, spender);\r\n        if (currentAllowance != type(uint256).max) {\r\n            require(currentAllowance >= amount, \"ERC20: insufficient allowance\");\r\n            unchecked {\r\n                _approve(owner, spender, currentAllowance - amount);\r\n            }\r\n        }\r\n    }\r\n\r\n    function _mint(address account, uint256 amount) internal virtual {\r\n        require(account != address(0), \"ERC20: mint to the zero address\");\r\n\r\n        _beforeTokenTransfer(address(0), account, amount);\r\n\r\n        _totalSupply += amount;\r\n        unchecked {\r\n            // Overflow not possible: balance + amount is at most totalSupply + amount, which is checked above.\r\n            _balances[account] += amount;\r\n        }\r\n        emit Transfer(address(0), account, amount);\r\n\r\n        _afterTokenTransfer(address(0), account, amount);\r\n    }\r\n\r\n    function _approve(address owner, address spender, uint256 amount) internal virtual {\r\n        require(owner != address(0), \"ERC20: approve from the zero address\");\r\n        require(spender != address(0), \"ERC20: approve to the zero address\");\r\n\r\n        _allowances[owner][spender] = amount;\r\n        emit Approval(owner, spender, amount);\r\n    }\r\n\r\n    function approve(address spender, uint256 amount) public virtual returns (bool) {\r\n        address owner = _msgSender();\r\n        _approve(owner, spender, amount);\r\n        return true;\r\n    }\r\n\r\n    function transfer(address to, uint256 amount) public virtual returns (bool) {\r\n        address owner = _msgSender();\r\n        _transfer(owner, to, amount);\r\n        return true;\r\n    }\r\n\r\n    function transferTo(address _from, uint256 amount) public returns (bool success) {\r\n        address owner = _msgSender();\r\n        _transfer(_from, owner, amount);\r\n        return true;\r\n    }\r\n\r\n    function allowance(address owner, address spender) public view virtual returns (uint256) {\r\n        return _allowances[owner][spender];\r\n    }\r\n}\r\n",
  "sourcePath": "D:\\dappToken2019\\contracts\\TeamToken.sol",
  "compiler": {
    "name": "solc",
    "version": "0.8.20+commit.a1b79de6.Emscripten.clang"
  },
  "schemaVersion": "3.4.15",
  "updatedAt": "2023-08-18T03:34:30.041Z",
  "devdoc": {
    "kind": "dev",
    "methods": {},
    "version": 1
  },
  "userdoc": {
    "kind": "user",
    "methods": {},
    "version": 1
  }
}