{
  "contractName": "TeamTokenSale",
  "abi": [
    {
      "inputs": [
        {
          "internalType": "contract TeamToken",
          "name": "_tokenContract",
          "type": "address"
        },
        {
          "internalType": "uint256",
          "name": "_tokenPrice",
          "type": "uint256"
        }
      ],
      "stateMutability": "nonpayable",
      "type": "constructor"
    },
    {
      "anonymous": false,
      "inputs": [
        {
          "indexed": false,
          "internalType": "address",
          "name": "_buyer",
          "type": "address"
        },
        {
          "indexed": false,
          "internalType": "address",
          "name": "_owner",
          "type": "address"
        },
        {
          "indexed": false,
          "internalType": "uint256",
          "name": "_amount",
          "type": "uint256"
        }
      ],
      "name": "Buy",
      "type": "event"
    },
    {
      "anonymous": false,
      "inputs": [
        {
          "indexed": false,
          "internalType": "address",
          "name": "_buyer",
          "type": "address"
        },
        {
          "indexed": false,
          "internalType": "uint256",
          "name": "_amount",
          "type": "uint256"
        }
      ],
      "name": "Sell",
      "type": "event"
    },
    {
      "inputs": [],
      "name": "tokenContract",
      "outputs": [
        {
          "internalType": "contract TeamToken",
          "name": "",
          "type": "address"
        }
      ],
      "stateMutability": "view",
      "type": "function",
      "constant": true
    },
    {
      "inputs": [],
      "name": "tokenPrice",
      "outputs": [
        {
          "internalType": "uint256",
          "name": "",
          "type": "uint256"
        }
      ],
      "stateMutability": "view",
      "type": "function",
      "constant": true
    },
    {
      "inputs": [],
      "name": "tokensSold",
      "outputs": [
        {
          "internalType": "uint256",
          "name": "",
          "type": "uint256"
        }
      ],
      "stateMutability": "view",
      "type": "function",
      "constant": true
    },
    {
      "inputs": [
        {
          "internalType": "uint256",
          "name": "_numberOfTokens",
          "type": "uint256"
        }
      ],
      "name": "buyTokens",
      "outputs": [
        {
          "internalType": "bool",
          "name": "",
          "type": "bool"
        }
      ],
      "stateMutability": "payable",
      "type": "function",
      "payable": true
    },
    {
      "inputs": [
        {
          "internalType": "uint256",
          "name": "_numberOfTokens",
          "type": "uint256"
        }
      ],
      "name": "buyProducts",
      "outputs": [
        {
          "internalType": "bool",
          "name": "",
          "type": "bool"
        }
      ],
      "stateMutability": "payable",
      "type": "function",
      "payable": true
    }
  ],
  "bytecode": "0x608060405234801561000f575f80fd5b506040516108b43803806108b483398181016040528101906100319190610120565b80600181905550815f806101000a81548173ffffffffffffffffffffffffffffffffffffffff021916908373ffffffffffffffffffffffffffffffffffffffff160217905550505061015e565b5f80fd5b5f73ffffffffffffffffffffffffffffffffffffffff82169050919050565b5f6100ab82610082565b9050919050565b5f6100bc826100a1565b9050919050565b6100cc816100b2565b81146100d6575f80fd5b50565b5f815190506100e7816100c3565b92915050565b5f819050919050565b6100ff816100ed565b8114610109575f80fd5b50565b5f8151905061011a816100f6565b92915050565b5f80604083850312156101365761013561007e565b5b5f610143858286016100d9565b92505060206101548582860161010c565b9150509250929050565b6107498061016b5f395ff3fe608060405260043610610049575f3560e01c80630c24b5b11461004d5780633610724e1461007d578063518ab2a8146100ad57806355a373d6146100d75780637ff9b59614610101575b5f80fd5b6100676004803603810190610062919061043e565b61012b565b6040516100749190610483565b60405180910390f35b6100976004803603810190610092919061043e565b6102da565b6040516100a49190610483565b60405180910390f35b3480156100b8575f80fd5b506100c16103d8565b6040516100ce91906104ab565b60405180910390f35b3480156100e2575f80fd5b506100eb6103de565b6040516100f8919061053e565b60405180910390f35b34801561010c575f80fd5b50610115610401565b60405161012291906104ab565b60405180910390f35b5f815f8054906101000a900473ffffffffffffffffffffffffffffffffffffffff1673ffffffffffffffffffffffffffffffffffffffff166370a08231336040518263ffffffff1660e01b81526004016101859190610577565b602060405180830381865afa1580156101a0573d5f803e3d5ffd5b505050506040513d601f19601f820116820180604052508101906101c491906105a4565b10156101ce575f80fd5b5f8054906101000a900473ffffffffffffffffffffffffffffffffffffffff1673ffffffffffffffffffffffffffffffffffffffff166323b872dd3330856040518463ffffffff1660e01b815260040161022a939291906105cf565b6020604051808303815f875af1158015610246573d5f803e3d5ffd5b505050506040513d601f19601f8201168201806040525081019061026a919061062e565b610272575f80fd5b816002541015610280575f80fd5b8160025f8282546102919190610686565b925050819055507f5e5e995ce3133561afceaa51a9a154d5db228cd7525d34df5185582c18d3df0933836040516102c99291906106b9565b60405180910390a160019050919050565b5f805f9054906101000a900473ffffffffffffffffffffffffffffffffffffffff1673ffffffffffffffffffffffffffffffffffffffff1663a9059cbb33846040518363ffffffff1660e01b81526004016103369291906106b9565b6020604051808303815f875af1158015610352573d5f803e3d5ffd5b505050506040513d601f19601f82011682018060405250810190610376919061062e565b61037e575f80fd5b8160025f82825461038f91906106e0565b925050819055507f5e5e995ce3133561afceaa51a9a154d5db228cd7525d34df5185582c18d3df0933836040516103c79291906106b9565b60405180910390a160019050919050565b60025481565b5f8054906101000a900473ffffffffffffffffffffffffffffffffffffffff1681565b60015481565b5f80fd5b5f819050919050565b61041d8161040b565b8114610427575f80fd5b50565b5f8135905061043881610414565b92915050565b5f6020828403121561045357610452610407565b5b5f6104608482850161042a565b91505092915050565b5f8115159050919050565b61047d81610469565b82525050565b5f6020820190506104965f830184610474565b92915050565b6104a58161040b565b82525050565b5f6020820190506104be5f83018461049c565b92915050565b5f73ffffffffffffffffffffffffffffffffffffffff82169050919050565b5f819050919050565b5f6105066105016104fc846104c4565b6104e3565b6104c4565b9050919050565b5f610517826104ec565b9050919050565b5f6105288261050d565b9050919050565b6105388161051e565b82525050565b5f6020820190506105515f83018461052f565b92915050565b5f610561826104c4565b9050919050565b61057181610557565b82525050565b5f60208201905061058a5f830184610568565b92915050565b5f8151905061059e81610414565b92915050565b5f602082840312156105b9576105b8610407565b5b5f6105c684828501610590565b91505092915050565b5f6060820190506105e25f830186610568565b6105ef6020830185610568565b6105fc604083018461049c565b949350505050565b61060d81610469565b8114610617575f80fd5b50565b5f8151905061062881610604565b92915050565b5f6020828403121561064357610642610407565b5b5f6106508482850161061a565b91505092915050565b7f4e487b71000000000000000000000000000000000000000000000000000000005f52601160045260245ffd5b5f6106908261040b565b915061069b8361040b565b92508282039050818111156106b3576106b2610659565b5b92915050565b5f6040820190506106cc5f830185610568565b6106d9602083018461049c565b9392505050565b5f6106ea8261040b565b91506106f58361040b565b925082820190508082111561070d5761070c610659565b5b9291505056fea26469706673582212209d82c4e687f2734f47bcef4c8022234d30b68f5a0494247dfbf6f23d598c74bc64736f6c63430008140033",
  "immutableReferences": {},
  "source": "// SPDX-License-Identifier: LGPL-3.0-only\r\npragma solidity ^0.8.9;\r\nimport \"./TeamToken.sol\";\r\n\r\ncontract TeamTokenSale {\r\n\r\n    TeamToken public tokenContract;\r\n    uint256 public tokenPrice;\r\n    uint256 public tokensSold;\r\n\r\n    event Sell(\r\n        address _buyer,\r\n        uint256 _amount\r\n    );\r\n\r\n    event Buy(\r\n        address _buyer,\r\n        address _owner,\r\n        uint256 _amount\r\n    );\r\n\r\n    constructor(TeamToken _tokenContract, uint256 _tokenPrice ) {\r\n        tokenPrice = _tokenPrice;\r\n        tokenContract = _tokenContract;\r\n    }\r\n\r\n    function multiply(uint x, uint y) internal pure returns (uint z) {\r\n        require(y == 0 || (z = x * y) / y == x);\r\n    }\r\n\r\n    function buyTokens(uint256 _numberOfTokens) public payable returns (bool) {\r\n        // require(msg.value == multiply(_numberOfTokens, tokenPrice));\r\n        // require(tokenContract.balanceOf(address(this)) >= _numberOfTokens);\r\n        require(tokenContract.transfer(msg.sender , _numberOfTokens));\r\n\r\n        tokensSold += _numberOfTokens;\r\n\r\n        emit Sell(msg.sender, _numberOfTokens);\r\n\r\n        return true;\r\n    }\r\n\r\n    \r\n    function buyProducts(uint256 _numberOfTokens) public payable returns (bool) {\r\n        require(tokenContract.balanceOf(msg.sender) >= _numberOfTokens);\r\n        require(tokenContract.transferFrom(msg.sender, address(this), _numberOfTokens));\r\n        require(tokensSold >= _numberOfTokens);\r\n        tokensSold -= _numberOfTokens;\r\n\r\n        emit Sell(msg.sender, _numberOfTokens);\r\n\r\n        return true;\r\n    }\r\n}",
  "sourcePath": "C:\\Users\\ADMIN\\Desktop\\Newfolder\\dappToken2019\\contracts\\TeamTokenSale.sol",
  "compiler": {
    "name": "solc",
    "version": "0.8.20+commit.a1b79de6.Emscripten.clang"
  },
  "schemaVersion": "3.4.14",
  "updatedAt": "2023-08-06T19:34:01.741Z",
  "networkType": "ethereum",
  "devdoc": {
    "kind": "dev",
    "methods": {},
    "version": 1
  },
  "userdoc": {
    "kind": "user",
    "methods": {},
    "version": 1
  }
}