{
  "contractName": "TeamToken",
  "abi": [
    {
      "inputs": [
        {
          "internalType": "string",
          "name": "name_",
          "type": "string"
        },
        {
          "internalType": "string",
          "name": "symbol_",
          "type": "string"
        },
        {
          "internalType": "uint256",
          "name": "_initialSupply",
          "type": "uint256"
        }
      ],
      "stateMutability": "nonpayable",
      "type": "constructor"
    },
    {
      "anonymous": false,
      "inputs": [
        {
          "indexed": true,
          "internalType": "address",
          "name": "owner",
          "type": "address"
        },
        {
          "indexed": true,
          "internalType": "address",
          "name": "spender",
          "type": "address"
        },
        {
          "indexed": false,
          "internalType": "uint256",
          "name": "value",
          "type": "uint256"
        }
      ],
      "name": "Approval",
      "type": "event"
    },
    {
      "anonymous": false,
      "inputs": [
        {
          "indexed": true,
          "internalType": "address",
          "name": "from",
          "type": "address"
        },
        {
          "indexed": true,
          "internalType": "address",
          "name": "to",
          "type": "address"
        },
        {
          "indexed": false,
          "internalType": "uint256",
          "name": "value",
          "type": "uint256"
        }
      ],
      "name": "Transfer",
      "type": "event"
    },
    {
      "inputs": [],
      "name": "name",
      "outputs": [
        {
          "internalType": "string",
          "name": "",
          "type": "string"
        }
      ],
      "stateMutability": "view",
      "type": "function",
      "constant": true
    },
    {
      "inputs": [],
      "name": "symbol",
      "outputs": [
        {
          "internalType": "string",
          "name": "",
          "type": "string"
        }
      ],
      "stateMutability": "view",
      "type": "function",
      "constant": true
    },
    {
      "inputs": [],
      "name": "decimals",
      "outputs": [
        {
          "internalType": "uint8",
          "name": "",
          "type": "uint8"
        }
      ],
      "stateMutability": "view",
      "type": "function",
      "constant": true
    },
    {
      "inputs": [],
      "name": "totalSupply",
      "outputs": [
        {
          "internalType": "uint256",
          "name": "",
          "type": "uint256"
        }
      ],
      "stateMutability": "view",
      "type": "function",
      "constant": true
    },
    {
      "inputs": [
        {
          "internalType": "address",
          "name": "account",
          "type": "address"
        }
      ],
      "name": "balanceOf",
      "outputs": [
        {
          "internalType": "uint256",
          "name": "",
          "type": "uint256"
        }
      ],
      "stateMutability": "view",
      "type": "function",
      "constant": true
    },
    {
      "inputs": [
        {
          "internalType": "address",
          "name": "from",
          "type": "address"
        },
        {
          "internalType": "address",
          "name": "to",
          "type": "address"
        },
        {
          "internalType": "uint256",
          "name": "amount",
          "type": "uint256"
        }
      ],
      "name": "transferFrom",
      "outputs": [
        {
          "internalType": "bool",
          "name": "",
          "type": "bool"
        }
      ],
      "stateMutability": "nonpayable",
      "type": "function"
    },
    {
      "inputs": [
        {
          "internalType": "address",
          "name": "spender",
          "type": "address"
        },
        {
          "internalType": "uint256",
          "name": "amount",
          "type": "uint256"
        }
      ],
      "name": "approve",
      "outputs": [
        {
          "internalType": "bool",
          "name": "",
          "type": "bool"
        }
      ],
      "stateMutability": "nonpayable",
      "type": "function"
    },
    {
      "inputs": [
        {
          "internalType": "address",
          "name": "to",
          "type": "address"
        },
        {
          "internalType": "uint256",
          "name": "amount",
          "type": "uint256"
        }
      ],
      "name": "transfer",
      "outputs": [
        {
          "internalType": "bool",
          "name": "",
          "type": "bool"
        }
      ],
      "stateMutability": "nonpayable",
      "type": "function"
    },
    {
      "inputs": [
        {
          "internalType": "address",
          "name": "_from",
          "type": "address"
        },
        {
          "internalType": "uint256",
          "name": "amount",
          "type": "uint256"
        }
      ],
      "name": "transferTo",
      "outputs": [
        {
          "internalType": "bool",
          "name": "success",
          "type": "bool"
        }
      ],
      "stateMutability": "nonpayable",
      "type": "function"
    },
    {
      "inputs": [
        {
          "internalType": "address",
          "name": "owner",
          "type": "address"
        },
        {
          "internalType": "address",
          "name": "spender",
          "type": "address"
        }
      ],
      "name": "allowance",
      "outputs": [
        {
          "internalType": "uint256",
          "name": "",
          "type": "uint256"
        }
      ],
      "stateMutability": "view",
      "type": "function",
      "constant": true
    },
    {
      "inputs": [
        {
          "internalType": "uint256",
          "name": "_numberOfTokens",
          "type": "uint256"
        }
      ],
      "name": "buy",
      "outputs": [
        {
          "internalType": "bool",
          "name": "",
          "type": "bool"
        }
      ],
      "stateMutability": "payable",
      "type": "function",
      "payable": true
    }
  ],
  "bytecode": "0x608060405234801562000010575f80fd5b5060405162001b8938038062001b898339818101604052810190620000369190620003d3565b826003908162000047919062000698565b50816004908162000059919062000698565b5062000096336200006f6200009f60201b60201c565b600a6200007d919062000905565b836200008a919062000955565b620000a760201b60201c565b50505062000a83565b5f6012905090565b5f73ffffffffffffffffffffffffffffffffffffffff168273ffffffffffffffffffffffffffffffffffffffff160362000118576040517f08c379a00000000000000000000000000000000000000000000000000000000081526004016200010f90620009fd565b60405180910390fd5b6200012b5f83836200020c60201b60201c565b8060025f8282546200013e919062000a1d565b92505081905550805f808473ffffffffffffffffffffffffffffffffffffffff1673ffffffffffffffffffffffffffffffffffffffff1681526020019081526020015f205f82825401925050819055508173ffffffffffffffffffffffffffffffffffffffff165f73ffffffffffffffffffffffffffffffffffffffff167fddf252ad1be2c89b69c2b068fc378daa952ba7f163c4a11628f55a4df523b3ef83604051620001ed919062000a68565b60405180910390a3620002085f83836200021160201b60201c565b5050565b505050565b505050565b5f604051905090565b5f80fd5b5f80fd5b5f80fd5b5f80fd5b5f601f19601f8301169050919050565b7f4e487b71000000000000000000000000000000000000000000000000000000005f52604160045260245ffd5b62000277826200022f565b810181811067ffffffffffffffff821117156200029957620002986200023f565b5b80604052505050565b5f620002ad62000216565b9050620002bb82826200026c565b919050565b5f67ffffffffffffffff821115620002dd57620002dc6200023f565b5b620002e8826200022f565b9050602081019050919050565b5f5b8381101562000314578082015181840152602081019050620002f7565b5f8484015250505050565b5f620003356200032f84620002c0565b620002a2565b9050828152602081018484840111156200035457620003536200022b565b5b62000361848285620002f5565b509392505050565b5f82601f83011262000380576200037f62000227565b5b8151620003928482602086016200031f565b91505092915050565b5f819050919050565b620003af816200039b565b8114620003ba575f80fd5b50565b5f81519050620003cd81620003a4565b92915050565b5f805f60608486031215620003ed57620003ec6200021f565b5b5f84015167ffffffffffffffff8111156200040d576200040c62000223565b5b6200041b8682870162000369565b935050602084015167ffffffffffffffff8111156200043f576200043e62000223565b5b6200044d8682870162000369565b92505060406200046086828701620003bd565b9150509250925092565b5f81519050919050565b7f4e487b71000000000000000000000000000000000000000000000000000000005f52602260045260245ffd5b5f6002820490506001821680620004b957607f821691505b602082108103620004cf57620004ce62000474565b5b50919050565b5f819050815f5260205f209050919050565b5f6020601f8301049050919050565b5f82821b905092915050565b5f60088302620005337fffffffffffffffffffffffffffffffffffffffffffffffffffffffffffffffff82620004f6565b6200053f8683620004f6565b95508019841693508086168417925050509392505050565b5f819050919050565b5f620005806200057a62000574846200039b565b62000557565b6200039b565b9050919050565b5f819050919050565b6200059b8362000560565b620005b3620005aa8262000587565b84845462000502565b825550505050565b5f90565b620005c9620005bb565b620005d681848462000590565b505050565b5b81811015620005fd57620005f15f82620005bf565b600181019050620005dc565b5050565b601f8211156200064c576200061681620004d5565b6200062184620004e7565b8101602085101562000631578190505b620006496200064085620004e7565b830182620005db565b50505b505050565b5f82821c905092915050565b5f6200066e5f198460080262000651565b1980831691505092915050565b5f6200068883836200065d565b9150826002028217905092915050565b620006a3826200046a565b67ffffffffffffffff811115620006bf57620006be6200023f565b5b620006cb8254620004a1565b620006d882828562000601565b5f60209050601f8311600181146200070e575f8415620006f9578287015190505b6200070585826200067b565b86555062000774565b601f1984166200071e86620004d5565b5f5b82811015620007475784890151825560018201915060208501945060208101905062000720565b8683101562000767578489015162000763601f8916826200065d565b8355505b6001600288020188555050505b505050505050565b7f4e487b71000000000000000000000000000000000000000000000000000000005f52601160045260245ffd5b5f8160011c9050919050565b5f808291508390505b60018511156200080657808604811115620007de57620007dd6200077c565b5b6001851615620007ee5780820291505b8081029050620007fe85620007a9565b9450620007be565b94509492505050565b5f82620008205760019050620008f2565b816200082f575f9050620008f2565b8160018114620008485760028114620008535762000889565b6001915050620008f2565b60ff8411156200086857620008676200077c565b5b8360020a9150848211156200088257620008816200077c565b5b50620008f2565b5060208310610133831016604e8410600b8410161715620008c35782820a905083811115620008bd57620008bc6200077c565b5b620008f2565b620008d28484846001620007b5565b92509050818404811115620008ec57620008eb6200077c565b5b81810290505b9392505050565b5f60ff82169050919050565b5f62000911826200039b565b91506200091e83620008f9565b92506200094d7fffffffffffffffffffffffffffffffffffffffffffffffffffffffffffffffff84846200080f565b905092915050565b5f62000961826200039b565b91506200096e836200039b565b92508282026200097e816200039b565b915082820484148315176200099857620009976200077c565b5b5092915050565b5f82825260208201905092915050565b7f45524332303a206d696e7420746f20746865207a65726f2061646472657373005f82015250565b5f620009e5601f836200099f565b9150620009f282620009af565b602082019050919050565b5f6020820190508181035f83015262000a1681620009d7565b9050919050565b5f62000a29826200039b565b915062000a36836200039b565b925082820190508082111562000a515762000a506200077c565b5b92915050565b62000a62816200039b565b82525050565b5f60208201905062000a7d5f83018462000a57565b92915050565b6110f88062000a915f395ff3fe60806040526004361061009b575f3560e01c8063313ce56711610063578063313ce567146101a757806370a08231146101d157806395d89b411461020d578063a9059cbb14610237578063d96a094a14610273578063dd62ed3e146102a35761009b565b806306fdde031461009f578063095ea7b3146100c957806318160ddd1461010557806323b872dd1461012f5780632ccb1b301461016b575b5f80fd5b3480156100aa575f80fd5b506100b36102df565b6040516100c09190610ad5565b60405180910390f35b3480156100d4575f80fd5b506100ef60048036038101906100ea9190610b86565b61036f565b6040516100fc9190610bde565b60405180910390f35b348015610110575f80fd5b50610119610391565b6040516101269190610c06565b60405180910390f35b34801561013a575f80fd5b5061015560048036038101906101509190610c1f565b61039a565b6040516101629190610bde565b60405180910390f35b348015610176575f80fd5b50610191600480360381019061018c9190610b86565b6103c8565b60405161019e9190610bde565b60405180910390f35b3480156101b2575f80fd5b506101bb6103ea565b6040516101c89190610c8a565b60405180910390f35b3480156101dc575f80fd5b506101f760048036038101906101f29190610ca3565b6103f2565b6040516102049190610c06565b60405180910390f35b348015610218575f80fd5b50610221610437565b60405161022e9190610ad5565b60405180910390f35b348015610242575f80fd5b5061025d60048036038101906102589190610b86565b6104c7565b60405161026a9190610bde565b60405180910390f35b61028d60048036038101906102889190610cce565b6104e9565b60405161029a9190610bde565b60405180910390f35b3480156102ae575f80fd5b506102c960048036038101906102c49190610cf9565b6104fe565b6040516102d69190610c06565b60405180910390f35b6060600380546102ee90610d64565b80601f016020809104026020016040519081016040528092919081815260200182805461031a90610d64565b80156103655780601f1061033c57610100808354040283529160200191610365565b820191905f5260205f20905b81548152906001019060200180831161034857829003601f168201915b5050505050905090565b5f80610379610580565b9050610386818585610587565b600191505092915050565b5f600254905090565b5f806103a4610580565b90506103b185828561074a565b6103bc8585856107d5565b60019150509392505050565b5f806103d2610580565b90506103df8482856107d5565b600191505092915050565b5f6012905090565b5f805f8373ffffffffffffffffffffffffffffffffffffffff1673ffffffffffffffffffffffffffffffffffffffff1681526020019081526020015f20549050919050565b60606004805461044690610d64565b80601f016020809104026020016040519081016040528092919081815260200182805461047290610d64565b80156104bd5780601f10610494576101008083540402835291602001916104bd565b820191905f5260205f20905b8154815290600101906020018083116104a057829003601f168201915b5050505050905090565b5f806104d1610580565b90506104de8185856107d5565b600191505092915050565b5f6104f433836104c7565b5060019050919050565b5f60015f8473ffffffffffffffffffffffffffffffffffffffff1673ffffffffffffffffffffffffffffffffffffffff1681526020019081526020015f205f8373ffffffffffffffffffffffffffffffffffffffff1673ffffffffffffffffffffffffffffffffffffffff1681526020019081526020015f2054905092915050565b5f33905090565b5f73ffffffffffffffffffffffffffffffffffffffff168373ffffffffffffffffffffffffffffffffffffffff16036105f5576040517f08c379a00000000000000000000000000000000000000000000000000000000081526004016105ec90610e04565b60405180910390fd5b5f73ffffffffffffffffffffffffffffffffffffffff168273ffffffffffffffffffffffffffffffffffffffff1603610663576040517f08c379a000000000000000000000000000000000000000000000000000000000815260040161065a90610e92565b60405180910390fd5b8060015f8573ffffffffffffffffffffffffffffffffffffffff1673ffffffffffffffffffffffffffffffffffffffff1681526020019081526020015f205f8473ffffffffffffffffffffffffffffffffffffffff1673ffffffffffffffffffffffffffffffffffffffff1681526020019081526020015f20819055508173ffffffffffffffffffffffffffffffffffffffff168373ffffffffffffffffffffffffffffffffffffffff167f8c5be1e5ebec7d5bd14f71427d1e84f3dd0314c0f7b2291e5b200ac8c7c3b9258360405161073d9190610c06565b60405180910390a3505050565b5f61075584846104fe565b90507fffffffffffffffffffffffffffffffffffffffffffffffffffffffffffffffff81146107cf57818110156107c1576040517f08c379a00000000000000000000000000000000000000000000000000000000081526004016107b890610efa565b60405180910390fd5b6107ce8484848403610587565b5b50505050565b5f73ffffffffffffffffffffffffffffffffffffffff168373ffffffffffffffffffffffffffffffffffffffff1603610843576040517f08c379a000000000000000000000000000000000000000000000000000000000815260040161083a90610f88565b60405180910390fd5b5f73ffffffffffffffffffffffffffffffffffffffff168273ffffffffffffffffffffffffffffffffffffffff16036108b1576040517f08c379a00000000000000000000000000000000000000000000000000000000081526004016108a890611016565b60405180910390fd5b6108bc838383610a41565b5f805f8573ffffffffffffffffffffffffffffffffffffffff1673ffffffffffffffffffffffffffffffffffffffff1681526020019081526020015f205490508181101561093f576040517f08c379a0000000000000000000000000000000000000000000000000000000008152600401610936906110a4565b60405180910390fd5b8181035f808673ffffffffffffffffffffffffffffffffffffffff1673ffffffffffffffffffffffffffffffffffffffff1681526020019081526020015f2081905550815f808573ffffffffffffffffffffffffffffffffffffffff1673ffffffffffffffffffffffffffffffffffffffff1681526020019081526020015f205f82825401925050819055508273ffffffffffffffffffffffffffffffffffffffff168473ffffffffffffffffffffffffffffffffffffffff167fddf252ad1be2c89b69c2b068fc378daa952ba7f163c4a11628f55a4df523b3ef84604051610a289190610c06565b60405180910390a3610a3b848484610a46565b50505050565b505050565b505050565b5f81519050919050565b5f82825260208201905092915050565b5f5b83811015610a82578082015181840152602081019050610a67565b5f8484015250505050565b5f601f19601f8301169050919050565b5f610aa782610a4b565b610ab18185610a55565b9350610ac1818560208601610a65565b610aca81610a8d565b840191505092915050565b5f6020820190508181035f830152610aed8184610a9d565b905092915050565b5f80fd5b5f73ffffffffffffffffffffffffffffffffffffffff82169050919050565b5f610b2282610af9565b9050919050565b610b3281610b18565b8114610b3c575f80fd5b50565b5f81359050610b4d81610b29565b92915050565b5f819050919050565b610b6581610b53565b8114610b6f575f80fd5b50565b5f81359050610b8081610b5c565b92915050565b5f8060408385031215610b9c57610b9b610af5565b5b5f610ba985828601610b3f565b9250506020610bba85828601610b72565b9150509250929050565b5f8115159050919050565b610bd881610bc4565b82525050565b5f602082019050610bf15f830184610bcf565b92915050565b610c0081610b53565b82525050565b5f602082019050610c195f830184610bf7565b92915050565b5f805f60608486031215610c3657610c35610af5565b5b5f610c4386828701610b3f565b9350506020610c5486828701610b3f565b9250506040610c6586828701610b72565b9150509250925092565b5f60ff82169050919050565b610c8481610c6f565b82525050565b5f602082019050610c9d5f830184610c7b565b92915050565b5f60208284031215610cb857610cb7610af5565b5b5f610cc584828501610b3f565b91505092915050565b5f60208284031215610ce357610ce2610af5565b5b5f610cf084828501610b72565b91505092915050565b5f8060408385031215610d0f57610d0e610af5565b5b5f610d1c85828601610b3f565b9250506020610d2d85828601610b3f565b9150509250929050565b7f4e487b71000000000000000000000000000000000000000000000000000000005f52602260045260245ffd5b5f6002820490506001821680610d7b57607f821691505b602082108103610d8e57610d8d610d37565b5b50919050565b7f45524332303a20617070726f76652066726f6d20746865207a65726f206164645f8201527f7265737300000000000000000000000000000000000000000000000000000000602082015250565b5f610dee602483610a55565b9150610df982610d94565b604082019050919050565b5f6020820190508181035f830152610e1b81610de2565b9050919050565b7f45524332303a20617070726f766520746f20746865207a65726f2061646472655f8201527f7373000000000000000000000000000000000000000000000000000000000000602082015250565b5f610e7c602283610a55565b9150610e8782610e22565b604082019050919050565b5f6020820190508181035f830152610ea981610e70565b9050919050565b7f45524332303a20696e73756666696369656e7420616c6c6f77616e63650000005f82015250565b5f610ee4601d83610a55565b9150610eef82610eb0565b602082019050919050565b5f6020820190508181035f830152610f1181610ed8565b9050919050565b7f45524332303a207472616e736665722066726f6d20746865207a65726f2061645f8201527f6472657373000000000000000000000000000000000000000000000000000000602082015250565b5f610f72602583610a55565b9150610f7d82610f18565b604082019050919050565b5f6020820190508181035f830152610f9f81610f66565b9050919050565b7f45524332303a207472616e7366657220746f20746865207a65726f20616464725f8201527f6573730000000000000000000000000000000000000000000000000000000000602082015250565b5f611000602383610a55565b915061100b82610fa6565b604082019050919050565b5f6020820190508181035f83015261102d81610ff4565b9050919050565b7f45524332303a207472616e7366657220616d6f756e74206578636565647320625f8201527f616c616e63650000000000000000000000000000000000000000000000000000602082015250565b5f61108e602683610a55565b915061109982611034565b604082019050919050565b5f6020820190508181035f8301526110bb81611082565b905091905056fea2646970667358221220f0758f03b102bbba3859929be00bc1e1f97a18d2b2ab05f3ecf41eb34881fc4e64736f6c63430008140033",
  "immutableReferences": {},
  "source": "// SPDX-License-Identifier: LGPL-3.0-only\r\npragma solidity ^0.8.9;\r\n\r\ncontract TeamToken {\r\n    mapping(address => uint256) private _balances;\r\n\r\n    mapping(address => mapping(address => uint256)) private _allowances;\r\n\r\n    uint256 private _totalSupply;\r\n\r\n    string private _name;\r\n    string private _symbol;\r\n\r\n    constructor(string memory name_, string memory symbol_, uint256 _initialSupply) {\r\n        _name = name_;\r\n        _symbol = symbol_;\r\n        _mint(msg.sender,_initialSupply * 10 ** decimals());\r\n    }\r\n\r\n    function name() public view virtual returns (string memory) {\r\n        return _name;\r\n    }\r\n\r\n    function symbol() public view virtual returns (string memory) {\r\n        return _symbol;\r\n    }\r\n\r\n    function decimals() public view virtual returns (uint8) {\r\n        return 18;\r\n    }\r\n\r\n    function totalSupply() public view virtual returns (uint256) {\r\n        return _totalSupply;\r\n    }\r\n\r\n    function balanceOf(address account) public view virtual returns (uint256) {\r\n        return _balances[account];\r\n    }\r\n\r\n    event Transfer(address indexed from, address indexed to, uint256 value);\r\n\r\n    event Approval(address indexed owner, address indexed spender, uint256 value);\r\n\r\n    function _msgSender() internal view virtual returns (address) {\r\n        return msg.sender;\r\n    }\r\n\r\n    function _msgData() internal view virtual returns (bytes calldata) {\r\n        return msg.data;\r\n    }\r\n\r\n    function _transfer(address from, address to, uint256 amount) internal virtual {\r\n        require(from != address(0), \"ERC20: transfer from the zero address\");\r\n        require(to != address(0), \"ERC20: transfer to the zero address\");\r\n\r\n        _beforeTokenTransfer(from, to, amount);\r\n\r\n        uint256 fromBalance = _balances[from];\r\n        require(fromBalance >= amount, \"ERC20: transfer amount exceeds balance\");\r\n        unchecked {\r\n            _balances[from] = fromBalance - amount;\r\n            _balances[to] += amount;\r\n        }\r\n\r\n        emit Transfer(from, to, amount);\r\n\r\n        _afterTokenTransfer(from, to, amount);\r\n    }\r\n\r\n    function transferFrom(address from, address to, uint256 amount) public virtual returns (bool) {\r\n        address spender = _msgSender();\r\n        _spendAllowance(from, spender, amount);\r\n        _transfer(from, to, amount);\r\n        return true;\r\n    }\r\n\r\n    function _beforeTokenTransfer(address from, address to, uint256 amount) internal virtual {}\r\n\r\n    function _afterTokenTransfer(address from, address to, uint256 amount) internal virtual {}\r\n\r\n    function _spendAllowance(address owner, address spender, uint256 amount) internal virtual {\r\n        uint256 currentAllowance = allowance(owner, spender);\r\n        if (currentAllowance != type(uint256).max) {\r\n            require(currentAllowance >= amount, \"ERC20: insufficient allowance\");\r\n            unchecked {\r\n                _approve(owner, spender, currentAllowance - amount);\r\n            }\r\n        }\r\n    }\r\n\r\n    function _mint(address account, uint256 amount) internal virtual {\r\n        require(account != address(0), \"ERC20: mint to the zero address\");\r\n\r\n        _beforeTokenTransfer(address(0), account, amount);\r\n\r\n        _totalSupply += amount;\r\n        unchecked {\r\n            // Overflow not possible: balance + amount is at most totalSupply + amount, which is checked above.\r\n            _balances[account] += amount;\r\n        }\r\n        emit Transfer(address(0), account, amount);\r\n\r\n        _afterTokenTransfer(address(0), account, amount);\r\n    }\r\n\r\n    function _approve(address owner, address spender, uint256 amount) internal virtual {\r\n        require(owner != address(0), \"ERC20: approve from the zero address\");\r\n        require(spender != address(0), \"ERC20: approve to the zero address\");\r\n\r\n        _allowances[owner][spender] = amount;\r\n        emit Approval(owner, spender, amount);\r\n    }\r\n\r\n    function approve(address spender, uint256 amount) public virtual returns (bool) {\r\n        address owner = _msgSender();\r\n        _approve(owner, spender, amount);\r\n        return true;\r\n    }\r\n\r\n    function transfer(address to, uint256 amount) public virtual returns (bool) {\r\n        address owner = _msgSender();\r\n        _transfer(owner, to, amount);\r\n        return true;\r\n    }\r\n\r\n    function transferTo(address _from, uint256 amount) public returns (bool success) {\r\n        address owner = _msgSender();\r\n        _transfer(_from, owner, amount);\r\n        return true;\r\n    }\r\n\r\n    function allowance(address owner, address spender) public view virtual returns (uint256) {\r\n        return _allowances[owner][spender];\r\n    }\r\n\r\n    function buy(uint256 _numberOfTokens) public payable returns (bool) {\r\n        // require(msg.value == multiply(_numberOfTokens, tokenPrice));\r\n        // require(tokenContract.balanceOf(address(this)) >= _numberOfTokens);\r\n        transfer(msg.sender , _numberOfTokens);\r\n        return true;\r\n    }\r\n}\r\n",
  "sourcePath": "C:\\Users\\ADMIN\\Desktop\\Newfolder\\dappToken2019\\contracts\\TeamToken.sol",
  "compiler": {
    "name": "solc",
    "version": "0.8.20+commit.a1b79de6.Emscripten.clang"
  },
  "schemaVersion": "3.4.14",
  "updatedAt": "2023-08-06T19:34:01.735Z",
  "networkType": "ethereum",
  "devdoc": {
    "kind": "dev",
    "methods": {},
    "version": 1
  },
  "userdoc": {
    "kind": "user",
    "methods": {},
    "version": 1
  }
}