{
  "contractName": "TeamTokenSale",
  "abi": [
    {
      "inputs": [
        {
          "internalType": "contract TeamToken",
          "name": "_tokenContract",
          "type": "address"
        },
        {
          "internalType": "uint256",
          "name": "_tokenPrice",
          "type": "uint256"
        }
      ],
      "stateMutability": "nonpayable",
      "type": "constructor"
    },
    {
      "anonymous": false,
      "inputs": [
        {
          "indexed": false,
          "internalType": "address",
          "name": "_buyer",
          "type": "address"
        },
        {
          "indexed": false,
          "internalType": "address",
          "name": "_owner",
          "type": "address"
        },
        {
          "indexed": false,
          "internalType": "uint256",
          "name": "_amount",
          "type": "uint256"
        }
      ],
      "name": "Buy",
      "type": "event"
    },
    {
      "anonymous": false,
      "inputs": [
        {
          "indexed": false,
          "internalType": "address",
          "name": "_buyer",
          "type": "address"
        },
        {
          "indexed": false,
          "internalType": "uint256",
          "name": "_amount",
          "type": "uint256"
        }
      ],
      "name": "Sell",
      "type": "event"
    },
    {
      "inputs": [],
      "name": "tokenContract",
      "outputs": [
        {
          "internalType": "contract TeamToken",
          "name": "",
          "type": "address"
        }
      ],
      "stateMutability": "view",
      "type": "function"
    },
    {
      "inputs": [],
      "name": "tokenPrice",
      "outputs": [
        {
          "internalType": "uint256",
          "name": "",
          "type": "uint256"
        }
      ],
      "stateMutability": "view",
      "type": "function"
    },
    {
      "inputs": [],
      "name": "tokensSold",
      "outputs": [
        {
          "internalType": "uint256",
          "name": "",
          "type": "uint256"
        }
      ],
      "stateMutability": "view",
      "type": "function"
    },
    {
      "inputs": [
        {
          "internalType": "uint256",
          "name": "_numberOfTokens",
          "type": "uint256"
        }
      ],
      "name": "buyTokens",
      "outputs": [
        {
          "internalType": "bool",
          "name": "",
          "type": "bool"
        }
      ],
      "stateMutability": "payable",
      "type": "function"
    },
    {
      "inputs": [
        {
          "internalType": "uint256",
          "name": "_numberOfTokens",
          "type": "uint256"
        }
      ],
      "name": "buyProducts",
      "outputs": [
        {
          "internalType": "bool",
          "name": "",
          "type": "bool"
        }
      ],
      "stateMutability": "payable",
      "type": "function"
    }
  ],
  "bytecode": "0x608060405234801561000f575f80fd5b506040516107bb3803806107bb83398181016040528101906100319190610120565b80600181905550815f806101000a81548173ffffffffffffffffffffffffffffffffffffffff021916908373ffffffffffffffffffffffffffffffffffffffff160217905550505061015e565b5f80fd5b5f73ffffffffffffffffffffffffffffffffffffffff82169050919050565b5f6100ab82610082565b9050919050565b5f6100bc826100a1565b9050919050565b6100cc816100b2565b81146100d6575f80fd5b50565b5f815190506100e7816100c3565b92915050565b5f819050919050565b6100ff816100ed565b8114610109575f80fd5b50565b5f8151905061011a816100f6565b92915050565b5f80604083850312156101365761013561007e565b5b5f610143858286016100d9565b92505060206101548582860161010c565b9150509250929050565b6106508061016b5f395ff3fe608060405260043610610049575f3560e01c80630c24b5b11461004d5780633610724e1461007d578063518ab2a8146100ad57806355a373d6146100d75780637ff9b59614610101575b5f80fd5b6100676004803603810190610062919061039d565b61012b565b60405161007491906103e2565b60405180910390f35b6100976004803603810190610092919061039d565b610239565b6040516100a491906103e2565b60405180910390f35b3480156100b8575f80fd5b506100c1610337565b6040516100ce919061040a565b60405180910390f35b3480156100e2575f80fd5b506100eb61033d565b6040516100f8919061049d565b60405180910390f35b34801561010c575f80fd5b50610115610360565b604051610122919061040a565b60405180910390f35b5f805f9054906101000a900473ffffffffffffffffffffffffffffffffffffffff1673ffffffffffffffffffffffffffffffffffffffff166323b872dd3330856040518463ffffffff1660e01b8152600401610189939291906104d6565b6020604051808303815f875af11580156101a5573d5f803e3d5ffd5b505050506040513d601f19601f820116820180604052508101906101c99190610535565b6101d1575f80fd5b8160025410156101df575f80fd5b8160025f8282546101f0919061058d565b925050819055507f5e5e995ce3133561afceaa51a9a154d5db228cd7525d34df5185582c18d3df0933836040516102289291906105c0565b60405180910390a160019050919050565b5f805f9054906101000a900473ffffffffffffffffffffffffffffffffffffffff1673ffffffffffffffffffffffffffffffffffffffff1663a9059cbb33846040518363ffffffff1660e01b81526004016102959291906105c0565b6020604051808303815f875af11580156102b1573d5f803e3d5ffd5b505050506040513d601f19601f820116820180604052508101906102d59190610535565b6102dd575f80fd5b8160025f8282546102ee91906105e7565b925050819055507f5e5e995ce3133561afceaa51a9a154d5db228cd7525d34df5185582c18d3df0933836040516103269291906105c0565b60405180910390a160019050919050565b60025481565b5f8054906101000a900473ffffffffffffffffffffffffffffffffffffffff1681565b60015481565b5f80fd5b5f819050919050565b61037c8161036a565b8114610386575f80fd5b50565b5f8135905061039781610373565b92915050565b5f602082840312156103b2576103b1610366565b5b5f6103bf84828501610389565b91505092915050565b5f8115159050919050565b6103dc816103c8565b82525050565b5f6020820190506103f55f8301846103d3565b92915050565b6104048161036a565b82525050565b5f60208201905061041d5f8301846103fb565b92915050565b5f73ffffffffffffffffffffffffffffffffffffffff82169050919050565b5f819050919050565b5f61046561046061045b84610423565b610442565b610423565b9050919050565b5f6104768261044b565b9050919050565b5f6104878261046c565b9050919050565b6104978161047d565b82525050565b5f6020820190506104b05f83018461048e565b92915050565b5f6104c082610423565b9050919050565b6104d0816104b6565b82525050565b5f6060820190506104e95f8301866104c7565b6104f660208301856104c7565b61050360408301846103fb565b949350505050565b610514816103c8565b811461051e575f80fd5b50565b5f8151905061052f8161050b565b92915050565b5f6020828403121561054a57610549610366565b5b5f61055784828501610521565b91505092915050565b7f4e487b71000000000000000000000000000000000000000000000000000000005f52601160045260245ffd5b5f6105978261036a565b91506105a28361036a565b92508282039050818111156105ba576105b9610560565b5b92915050565b5f6040820190506105d35f8301856104c7565b6105e060208301846103fb565b9392505050565b5f6105f18261036a565b91506105fc8361036a565b925082820190508082111561061457610613610560565b5b9291505056fea26469706673582212207f26fd9bf8fedade76bf26c8c40c8fa15796d42471b628ffe50b5bf3c4b39f0464736f6c63430008140033",
  "immutableReferences": {},
  "source": "// SPDX-License-Identifier: LGPL-3.0-only\r\npragma solidity ^0.8.9;\r\nimport \"./TeamToken.sol\";\r\n\r\ncontract TeamTokenSale {\r\n\r\n    TeamToken public tokenContract;\r\n    uint256 public tokenPrice;\r\n    uint256 public tokensSold;\r\n\r\n    event Sell(\r\n        address _buyer,\r\n        uint256 _amount\r\n    );\r\n\r\n    event Buy(\r\n        address _buyer,\r\n        address _owner,\r\n        uint256 _amount\r\n    );\r\n\r\n    constructor(TeamToken _tokenContract, uint256 _tokenPrice ) {\r\n        tokenPrice = _tokenPrice;\r\n        tokenContract = _tokenContract;\r\n    }\r\n\r\n    function buyTokens(uint256 _numberOfTokens) public payable returns (bool) {\r\n\r\n        require(tokenContract.transfer(msg.sender , _numberOfTokens));\r\n\r\n        tokensSold += _numberOfTokens;\r\n\r\n        emit Sell(msg.sender, _numberOfTokens);\r\n\r\n        return true;\r\n    }\r\n\r\n    \r\n    function buyProducts(uint256 _numberOfTokens) public payable returns (bool) {\r\n        \r\n        require(tokenContract.transferFrom(msg.sender, address(this), _numberOfTokens));\r\n        require(tokensSold >= _numberOfTokens);\r\n        tokensSold -= _numberOfTokens;\r\n\r\n        emit Sell(msg.sender, _numberOfTokens);\r\n\r\n        return true;\r\n    }\r\n}",
  "sourcePath": "D:\\dappToken2019\\contracts\\TeamTokenSale.sol",
  "compiler": {
    "name": "solc",
    "version": "0.8.20+commit.a1b79de6.Emscripten.clang"
  },
  "schemaVersion": "3.4.15",
  "updatedAt": "2023-08-18T03:34:30.050Z",
  "devdoc": {
    "kind": "dev",
    "methods": {},
    "version": 1
  },
  "userdoc": {
    "kind": "user",
    "methods": {},
    "version": 1
  }
}